{
  "_format": "hh-sol-artifact-1",
  "contractName": "BotblockMarket",
  "sourceName": "contracts/BotblockMarket.sol",
  "abi": [
    {
      "inputs": [
        {
          "internalType": "address",
          "name": "_nftContract",
          "type": "address"
        }
      ],
      "stateMutability": "nonpayable",
      "type": "constructor"
    },
    {
      "anonymous": false,
      "inputs": [
        {
          "indexed": false,
          "internalType": "uint256",
          "name": "orderId",
          "type": "uint256"
        },
        {
          "indexed": false,
          "internalType": "address",
          "name": "buyer",
          "type": "address"
        },
        {
          "indexed": false,
          "internalType": "uint256",
          "name": "tokenId",
          "type": "uint256"
        }
      ],
      "name": "OrderEvaded",
      "type": "event"
    },
    {
      "anonymous": false,
      "inputs": [
        {
          "indexed": false,
          "internalType": "uint256",
          "name": "orderId",
          "type": "uint256"
        },
        {
          "indexed": false,
          "internalType": "address",
          "name": "buyer",
          "type": "address"
        }
      ],
      "name": "OrderPlaced",
      "type": "event"
    },
    {
      "anonymous": false,
      "inputs": [
        {
          "indexed": true,
          "internalType": "address",
          "name": "previousOwner",
          "type": "address"
        },
        {
          "indexed": true,
          "internalType": "address",
          "name": "newOwner",
          "type": "address"
        }
      ],
      "name": "OwnershipTransferred",
      "type": "event"
    },
    {
      "anonymous": false,
      "inputs": [
        {
          "indexed": false,
          "internalType": "uint256",
          "name": "planID",
          "type": "uint256"
        },
        {
          "indexed": false,
          "internalType": "address",
          "name": "contentCreator",
          "type": "address"
        }
      ],
      "name": "PlanCreated",
      "type": "event"
    },
    {
      "inputs": [
        {
          "internalType": "address",
          "name": "paymentTokenAddress",
          "type": "address"
        },
        {
          "internalType": "uint256",
          "name": "price",
          "type": "uint256"
        },
        {
          "internalType": "uint256",
          "name": "expirationBlock",
          "type": "uint256"
        },
        {
          "internalType": "string",
          "name": "uri",
          "type": "string"
        }
      ],
      "name": "createPlan",
      "outputs": [],
      "stateMutability": "nonpayable",
      "type": "function"
    },
    {
      "inputs": [
        {
          "internalType": "uint256",
          "name": "orderId",
          "type": "uint256"
        }
      ],
      "name": "evadeOrder",
      "outputs": [],
      "stateMutability": "nonpayable",
      "type": "function"
    },
    {
      "inputs": [],
      "name": "neverminedNft721",
      "outputs": [
        {
          "internalType": "contract INvmNFT721",
          "name": "",
          "type": "address"
        }
      ],
      "stateMutability": "view",
      "type": "function"
    },
    {
      "inputs": [],
      "name": "orderCount",
      "outputs": [
        {
          "internalType": "uint256",
          "name": "",
          "type": "uint256"
        }
      ],
      "stateMutability": "view",
      "type": "function"
    },
    {
      "inputs": [
        {
          "internalType": "uint256",
          "name": "",
          "type": "uint256"
        }
      ],
      "name": "orders",
      "outputs": [
        {
          "internalType": "address",
          "name": "buyer",
          "type": "address"
        },
        {
          "components": [
            {
              "internalType": "uint256",
              "name": "planID",
              "type": "uint256"
            },
            {
              "internalType": "address",
              "name": "contentCreator",
              "type": "address"
            },
            {
              "internalType": "address",
              "name": "paymentTokenAddress",
              "type": "address"
            },
            {
              "internalType": "uint256",
              "name": "price",
              "type": "uint256"
            },
            {
              "internalType": "uint256",
              "name": "expirationBlock",
              "type": "uint256"
            },
            {
              "internalType": "string",
              "name": "uri",
              "type": "string"
            }
          ],
          "internalType": "struct BotblockMarket.Plan",
          "name": "plan",
          "type": "tuple"
        },
        {
          "internalType": "enum BotblockMarket.OrderStatus",
          "name": "status",
          "type": "uint8"
        },
        {
          "internalType": "uint256",
          "name": "orderId",
          "type": "uint256"
        }
      ],
      "stateMutability": "view",
      "type": "function"
    },
    {
      "inputs": [],
      "name": "owner",
      "outputs": [
        {
          "internalType": "address",
          "name": "",
          "type": "address"
        }
      ],
      "stateMutability": "view",
      "type": "function"
    },
    {
      "inputs": [
        {
          "internalType": "uint256",
          "name": "planId",
          "type": "uint256"
        },
        {
          "internalType": "uint256",
          "name": "amount",
          "type": "uint256"
        }
      ],
      "name": "placeOrder",
      "outputs": [],
      "stateMutability": "payable",
      "type": "function"
    },
    {
      "inputs": [],
      "name": "planCount",
      "outputs": [
        {
          "internalType": "uint256",
          "name": "",
          "type": "uint256"
        }
      ],
      "stateMutability": "view",
      "type": "function"
    },
    {
      "inputs": [
        {
          "internalType": "uint256",
          "name": "",
          "type": "uint256"
        }
      ],
      "name": "plans",
      "outputs": [
        {
          "internalType": "uint256",
          "name": "planID",
          "type": "uint256"
        },
        {
          "internalType": "address",
          "name": "contentCreator",
          "type": "address"
        },
        {
          "internalType": "address",
          "name": "paymentTokenAddress",
          "type": "address"
        },
        {
          "internalType": "uint256",
          "name": "price",
          "type": "uint256"
        },
        {
          "internalType": "uint256",
          "name": "expirationBlock",
          "type": "uint256"
        },
        {
          "internalType": "string",
          "name": "uri",
          "type": "string"
        }
      ],
      "stateMutability": "view",
      "type": "function"
    },
    {
      "inputs": [],
      "name": "renounceOwnership",
      "outputs": [],
      "stateMutability": "nonpayable",
      "type": "function"
    },
    {
      "inputs": [
        {
          "internalType": "address",
          "name": "newOwner",
          "type": "address"
        }
      ],
      "name": "transferOwnership",
      "outputs": [],
      "stateMutability": "nonpayable",
      "type": "function"
    }
  ],
  "bytecode": "0x608060405234801561001057600080fd5b506040516113e23803806113e283398101604081905261002f916100ad565b6100383361005d565b600180546001600160a01b0319166001600160a01b03929092169190911790556100dd565b600080546001600160a01b038381166001600160a01b0319831681178455604051919092169283917f8be0079c531659141344cd1fd0a4f28419497f9722a3daafe3b4186f6b6457e09190a35050565b6000602082840312156100bf57600080fd5b81516001600160a01b03811681146100d657600080fd5b9392505050565b6112f6806100ec6000396000f3fe60806040526004361061009c5760003560e01c80638da5cb5b116100645780638da5cb5b146101425780639522336314610160578063a85c38ef14610180578063b1620616146101b0578063b54cb048146101e2578063f2fde38b1461020257600080fd5b80632453ffa8146100a1578063382d39bb146100ca578063715018a6146100e05780637b23de81146100f7578063843f61e21461012f575b600080fd5b3480156100ad57600080fd5b506100b760065481565b6040519081526020015b60405180910390f35b3480156100d657600080fd5b506100b760045481565b3480156100ec57600080fd5b506100f5610222565b005b34801561010357600080fd5b50600154610117906001600160a01b031681565b6040516001600160a01b0390911681526020016100c1565b6100f561013d366004610e69565b610236565b34801561014e57600080fd5b506000546001600160a01b0316610117565b34801561016c57600080fd5b506100f561017b366004610e8b565b6106a1565b34801561018c57600080fd5b506101a061019b366004610e8b565b610a29565b6040516100c19493929190610f22565b3480156101bc57600080fd5b506101d06101cb366004610e8b565b610b39565b6040516100c196959493929190610fa6565b3480156101ee57600080fd5b506100f56101fd366004611024565b610c06565b34801561020e57600080fd5b506100f561021d3660046110f9565b610d31565b61022a610daa565b6102346000610e04565b565b6000828152600360208181526040808420815160c0810183528154815260018201546001600160a01b03908116948201949094526002820154909316918301919091529182015460608201526004820154608082015260058201805491929160a0840191906102a490611114565b80601f01602080910402602001604051908101604052809291908181526020018280546102d090611114565b801561031d5780601f106102f25761010080835404028352916020019161031d565b820191906000526020600020905b81548152906001019060200180831161030057829003601f168201915b5050505050815250509050806060015182146103805760405162461bcd60e51b815260206004820152601860248201527f496e636f7272656374207061796d656e7420616d6f756e74000000000000000060448201526064015b60405180910390fd5b60408181015190516323b872dd60e01b8152336004820152306024820152604481018490526000906001600160a01b038316906323b872dd906064016020604051808303816000875af11580156103db573d6000803e3d6000fd5b505050506040513d601f19601f820116820180604052508101906103ff919061114e565b90508061045e5760405162461bcd60e51b815260206004820152602760248201527f74686520627579657220636f756c646e277420706179207468652073756273636044820152663934b83a34b7b760c91b6064820152608401610377565b60065460009061046f906001610e54565b604080516080808201835233825260008a815260036020818152858320865160c0810188528154815260018201546001600160a01b0390811682850152600283015416978101979097529182015460608701526004820154938601939093526005810180549697509195939492850193909160a08401916104ef90611114565b80601f016020809104026020016040519081016040528092919081815260200182805461051b90611114565b80156105685780601f1061053d57610100808354040283529160200191610568565b820191906000526020600020905b81548152906001019060200180831161054b57829003601f168201915b50505091909252505050815260200160008152602001839052600654909150610592906001610e54565b6006818155600091825260056020818152604093849020855181546001600160a01b039182166001600160a01b03199182161783558388015180516001850190815594810151600285018054918516918416919091179055968701516003840180549190931691161790556060850151600482015560808501519281019290925560a08401518594929384019061062990826111c6565b505050604082015160078201805460ff19166001838181111561064e5761064e610eea565b021790555060609190910151600890910155604080518381523360208201527f5222ba5f86a58ad15e7771bd95a809f162ae1762ea7cd66e28a58217341334cc910160405180910390a150505050505050565b6000546001600160a01b031633146107155760405162461bcd60e51b815260206004820152603160248201527f4f6e6c7920746865206d61726b6574706c616365206f776e65722063616e206360448201527030b636103a3434b990333ab731ba34b7b760791b6064820152608401610377565b600081815260056020526040812090600782015460ff16600181111561073d5761073d610eea565b1461078a5760405162461bcd60e51b815260206004820152601760248201527f4f7264657220697320616c7265616479206576616465640000000000000000006044820152606401610377565b60025460009061079b906001610e54565b60038301546004808501546040516370a0823160e01b815230928101929092529293506001600160a01b03909116919082906370a0823190602401602060405180830381865afa1580156107f3573d6000803e3d6000fd5b505050506040513d601f19601f820116820180604052508101906108179190611286565b101561085c5760405162461bcd60e51b8152602060048201526014602482015273496e73756666696369656e742062616c616e636560601b6044820152606401610377565b600283015460048085015460405163a9059cbb60e01b81526001600160a01b0393841692810192909252602482015260009183169063a9059cbb906044016020604051808303816000875af11580156108b9573d6000803e3d6000fd5b505050506040513d601f19601f820116820180604052508101906108dd919061114e565b9050806109425760405162461bcd60e51b815260206004820152602d60248201527f74686520636f6e747261637420636f756c646e2774207061792074686520636f60448201526c373a32b73a1031b932b0ba37b960991b6064820152608401610377565b60015484546005860154604051630ab714fb60e11b81526001600160a01b03928316600482015260248101879052604481019190915291169063156e29f690606401600060405180830381600087803b15801561099e57600080fd5b505af11580156109b2573d6000803e3d6000fd5b50506002546109c5925090506001610e54565b60025560078401805460ff191660011790558354604080518781526001600160a01b03909216602083015281018490527fb8a362e1c3231bc76ac0845f6bd0c60e1b9ab26e0e0a0f49058de1fb1423dcbe9060600160405180910390a15050505050565b6005602081815260009283526040928390208054845160c081018652600183018054825260028401546001600160a01b0390811695830195909552600384015485169682019690965260048301546060820152938201546080850152600682018054939091169491939260a084019190610aa290611114565b80601f0160208091040260200160405190810160405280929190818152602001828054610ace90611114565b8015610b1b5780601f10610af057610100808354040283529160200191610b1b565b820191906000526020600020905b815481529060010190602001808311610afe57829003601f168201915b505050919092525050506007820154600890920154909160ff169084565b600360208190526000918252604090912080546001820154600283015493830154600484015460058501805494966001600160a01b039485169694169492939192610b8390611114565b80601f0160208091040260200160405190810160405280929190818152602001828054610baf90611114565b8015610bfc5780601f10610bd157610100808354040283529160200191610bfc565b820191906000526020600020905b815481529060010190602001808311610bdf57829003601f168201915b5050505050905086565b600454600090610c17906001610e54565b905060006040518060c00160405280838152602001336001600160a01b03168152602001876001600160a01b03168152602001868152602001858152602001848152509050610c726001600454610e5490919063ffffffff16565b600481815560009182526003602081815260409384902085518155908501516001820180546001600160a01b03199081166001600160a01b03938416179091559486015160028301805490961691161790935560608401519083015560808301519082015560a08201518291906005820190610cee90826111c6565b5050604080518481523360208201527f6b67a01eb500680a90226d64ad9239c6dc9c95b64ea6a8d9a3b5b94197b4658592500160405180910390a1505050505050565b610d39610daa565b6001600160a01b038116610d9e5760405162461bcd60e51b815260206004820152602660248201527f4f776e61626c653a206e6577206f776e657220697320746865207a65726f206160448201526564647265737360d01b6064820152608401610377565b610da781610e04565b50565b6000546001600160a01b031633146102345760405162461bcd60e51b815260206004820181905260248201527f4f776e61626c653a2063616c6c6572206973206e6f7420746865206f776e65726044820152606401610377565b600080546001600160a01b038381166001600160a01b0319831681178455604051919092169283917f8be0079c531659141344cd1fd0a4f28419497f9722a3daafe3b4186f6b6457e09190a35050565b6000610e60828461129f565b90505b92915050565b60008060408385031215610e7c57600080fd5b50508035926020909101359150565b600060208284031215610e9d57600080fd5b5035919050565b6000815180845260005b81811015610eca57602081850181015186830182015201610eae565b506000602082860101526020601f19601f83011685010191505092915050565b634e487b7160e01b600052602160045260246000fd5b60028110610f1e57634e487b7160e01b600052602160045260246000fd5b9052565b600060018060a01b03808716835260806020840152855160808401528060208701511660a08401528060408701511660c084015250606085015160e0830152608085015161010083015260a085015160c0610120840152610f87610140840182610ea4565b915050610f976040830185610f00565b82606083015295945050505050565b8681526001600160a01b03868116602083015285166040820152606081018490526080810183905260c060a08201819052600090610fe690830184610ea4565b98975050505050505050565b80356001600160a01b038116811461100957600080fd5b919050565b634e487b7160e01b600052604160045260246000fd5b6000806000806080858703121561103a57600080fd5b61104385610ff2565b93506020850135925060408501359150606085013567ffffffffffffffff8082111561106e57600080fd5b818701915087601f83011261108257600080fd5b8135818111156110945761109461100e565b604051601f8201601f19908116603f011681019083821181831017156110bc576110bc61100e565b816040528281528a60208487010111156110d557600080fd5b82602086016020830137600060208483010152809550505050505092959194509250565b60006020828403121561110b57600080fd5b610e6082610ff2565b600181811c9082168061112857607f821691505b60208210810361114857634e487b7160e01b600052602260045260246000fd5b50919050565b60006020828403121561116057600080fd5b8151801515811461117057600080fd5b9392505050565b601f8211156111c157600081815260208120601f850160051c8101602086101561119e5750805b601f850160051c820191505b818110156111bd578281556001016111aa565b5050505b505050565b815167ffffffffffffffff8111156111e0576111e061100e565b6111f4816111ee8454611114565b84611177565b602080601f83116001811461122957600084156112115750858301515b600019600386901b1c1916600185901b1785556111bd565b600085815260208120601f198616915b8281101561125857888601518255948401946001909101908401611239565b50858210156112765787850151600019600388901b60f8161c191681555b5050505050600190811b01905550565b60006020828403121561129857600080fd5b5051919050565b80820180821115610e6357634e487b7160e01b600052601160045260246000fdfea26469706673582212204f4a9a64eee6bb29f6bfe975c0db651f401fce69940badcf739edcdea35743e164736f6c63430008110033",
  "linkReferences": {},
  "deployedLinkReferences": {}
}