{
  "_format": "hh-sol-artifact-1",
  "contractName": "BotblockMarket",
  "sourceName": "contracts/BotblockMarket.sol",
  "abi": [
    {
      "inputs": [
        {
          "internalType": "address",
          "name": "_nftContract",
          "type": "address"
        }
      ],
      "stateMutability": "nonpayable",
      "type": "constructor"
    },
    {
      "anonymous": false,
      "inputs": [
        {
          "indexed": false,
          "internalType": "uint256",
          "name": "orderId",
          "type": "uint256"
        },
        {
          "indexed": false,
          "internalType": "address",
          "name": "buyer",
          "type": "address"
        },
        {
          "indexed": false,
          "internalType": "uint256",
          "name": "tokenId",
          "type": "uint256"
        }
      ],
      "name": "OrderEvaded",
      "type": "event"
    },
    {
      "anonymous": false,
      "inputs": [
        {
          "indexed": false,
          "internalType": "uint256",
          "name": "orderId",
          "type": "uint256"
        },
        {
          "indexed": false,
          "internalType": "address",
          "name": "buyer",
          "type": "address"
        }
      ],
      "name": "OrderPlaced",
      "type": "event"
    },
    {
      "anonymous": false,
      "inputs": [
        {
          "indexed": true,
          "internalType": "address",
          "name": "previousOwner",
          "type": "address"
        },
        {
          "indexed": true,
          "internalType": "address",
          "name": "newOwner",
          "type": "address"
        }
      ],
      "name": "OwnershipTransferred",
      "type": "event"
    },
    {
      "anonymous": false,
      "inputs": [
        {
          "indexed": false,
          "internalType": "uint256",
          "name": "planID",
          "type": "uint256"
        },
        {
          "indexed": false,
          "internalType": "address",
          "name": "contentCreator",
          "type": "address"
        }
      ],
      "name": "PlanCreated",
      "type": "event"
    },
    {
      "inputs": [
        {
          "internalType": "address",
          "name": "paymentTokenAddress",
          "type": "address"
        },
        {
          "internalType": "uint256",
          "name": "price",
          "type": "uint256"
        },
        {
          "internalType": "uint256",
          "name": "expirationBlock",
          "type": "uint256"
        },
        {
          "internalType": "string",
          "name": "uri",
          "type": "string"
        }
      ],
      "name": "createPlan",
      "outputs": [],
      "stateMutability": "nonpayable",
      "type": "function"
    },
    {
      "inputs": [],
      "name": "evadeActiveOrders",
      "outputs": [],
      "stateMutability": "nonpayable",
      "type": "function"
    },
    {
      "inputs": [
        {
          "internalType": "uint256",
          "name": "orderId",
          "type": "uint256"
        }
      ],
      "name": "evadeOrder",
      "outputs": [],
      "stateMutability": "nonpayable",
      "type": "function"
    },
    {
      "inputs": [],
      "name": "getAllOrders",
      "outputs": [
        {
          "components": [
            {
              "internalType": "address",
              "name": "buyer",
              "type": "address"
            },
            {
              "components": [
                {
                  "internalType": "uint256",
                  "name": "planID",
                  "type": "uint256"
                },
                {
                  "internalType": "address",
                  "name": "contentCreator",
                  "type": "address"
                },
                {
                  "internalType": "address",
                  "name": "paymentTokenAddress",
                  "type": "address"
                },
                {
                  "internalType": "uint256",
                  "name": "price",
                  "type": "uint256"
                },
                {
                  "internalType": "uint256",
                  "name": "expirationBlock",
                  "type": "uint256"
                },
                {
                  "internalType": "string",
                  "name": "uri",
                  "type": "string"
                }
              ],
              "internalType": "struct BotblockMarket.Plan",
              "name": "plan",
              "type": "tuple"
            },
            {
              "internalType": "enum BotblockMarket.OrderStatus",
              "name": "status",
              "type": "uint8"
            },
            {
              "internalType": "uint256",
              "name": "orderId",
              "type": "uint256"
            }
          ],
          "internalType": "struct BotblockMarket.Order[]",
          "name": "allOrders",
          "type": "tuple[]"
        }
      ],
      "stateMutability": "view",
      "type": "function"
    },
    {
      "inputs": [],
      "name": "getAllPlans",
      "outputs": [
        {
          "components": [
            {
              "internalType": "uint256",
              "name": "planID",
              "type": "uint256"
            },
            {
              "internalType": "address",
              "name": "contentCreator",
              "type": "address"
            },
            {
              "internalType": "address",
              "name": "paymentTokenAddress",
              "type": "address"
            },
            {
              "internalType": "uint256",
              "name": "price",
              "type": "uint256"
            },
            {
              "internalType": "uint256",
              "name": "expirationBlock",
              "type": "uint256"
            },
            {
              "internalType": "string",
              "name": "uri",
              "type": "string"
            }
          ],
          "internalType": "struct BotblockMarket.Plan[]",
          "name": "allPlans",
          "type": "tuple[]"
        }
      ],
      "stateMutability": "view",
      "type": "function"
    },
    {
      "inputs": [],
      "name": "neverminedNft721",
      "outputs": [
        {
          "internalType": "contract INvmNFT721",
          "name": "",
          "type": "address"
        }
      ],
      "stateMutability": "view",
      "type": "function"
    },
    {
      "inputs": [],
      "name": "orderCount",
      "outputs": [
        {
          "internalType": "uint256",
          "name": "",
          "type": "uint256"
        }
      ],
      "stateMutability": "view",
      "type": "function"
    },
    {
      "inputs": [
        {
          "internalType": "uint256",
          "name": "",
          "type": "uint256"
        }
      ],
      "name": "orders",
      "outputs": [
        {
          "internalType": "address",
          "name": "buyer",
          "type": "address"
        },
        {
          "components": [
            {
              "internalType": "uint256",
              "name": "planID",
              "type": "uint256"
            },
            {
              "internalType": "address",
              "name": "contentCreator",
              "type": "address"
            },
            {
              "internalType": "address",
              "name": "paymentTokenAddress",
              "type": "address"
            },
            {
              "internalType": "uint256",
              "name": "price",
              "type": "uint256"
            },
            {
              "internalType": "uint256",
              "name": "expirationBlock",
              "type": "uint256"
            },
            {
              "internalType": "string",
              "name": "uri",
              "type": "string"
            }
          ],
          "internalType": "struct BotblockMarket.Plan",
          "name": "plan",
          "type": "tuple"
        },
        {
          "internalType": "enum BotblockMarket.OrderStatus",
          "name": "status",
          "type": "uint8"
        },
        {
          "internalType": "uint256",
          "name": "orderId",
          "type": "uint256"
        }
      ],
      "stateMutability": "view",
      "type": "function"
    },
    {
      "inputs": [],
      "name": "owner",
      "outputs": [
        {
          "internalType": "address",
          "name": "",
          "type": "address"
        }
      ],
      "stateMutability": "view",
      "type": "function"
    },
    {
      "inputs": [
        {
          "internalType": "uint256",
          "name": "planId",
          "type": "uint256"
        },
        {
          "internalType": "uint256",
          "name": "amount",
          "type": "uint256"
        }
      ],
      "name": "placeOrder",
      "outputs": [],
      "stateMutability": "nonpayable",
      "type": "function"
    },
    {
      "inputs": [],
      "name": "planCount",
      "outputs": [
        {
          "internalType": "uint256",
          "name": "",
          "type": "uint256"
        }
      ],
      "stateMutability": "view",
      "type": "function"
    },
    {
      "inputs": [
        {
          "internalType": "uint256",
          "name": "",
          "type": "uint256"
        }
      ],
      "name": "plans",
      "outputs": [
        {
          "internalType": "uint256",
          "name": "planID",
          "type": "uint256"
        },
        {
          "internalType": "address",
          "name": "contentCreator",
          "type": "address"
        },
        {
          "internalType": "address",
          "name": "paymentTokenAddress",
          "type": "address"
        },
        {
          "internalType": "uint256",
          "name": "price",
          "type": "uint256"
        },
        {
          "internalType": "uint256",
          "name": "expirationBlock",
          "type": "uint256"
        },
        {
          "internalType": "string",
          "name": "uri",
          "type": "string"
        }
      ],
      "stateMutability": "view",
      "type": "function"
    },
    {
      "inputs": [],
      "name": "renounceOwnership",
      "outputs": [],
      "stateMutability": "nonpayable",
      "type": "function"
    },
    {
      "inputs": [
        {
          "internalType": "address",
          "name": "newOwner",
          "type": "address"
        }
      ],
      "name": "transferOwnership",
      "outputs": [],
      "stateMutability": "nonpayable",
      "type": "function"
    }
  ],
  "bytecode": "0x608060405234801561001057600080fd5b5060405161193138038061193183398101604081905261002f916100ad565b6100383361005d565b600180546001600160a01b0319166001600160a01b03929092169190911790556100dd565b600080546001600160a01b038381166001600160a01b0319831681178455604051919092169283917f8be0079c531659141344cd1fd0a4f28419497f9722a3daafe3b4186f6b6457e09190a35050565b6000602082840312156100bf57600080fd5b81516001600160a01b03811681146100d657600080fd5b9392505050565b611845806100ec6000396000f3fe608060405234801561001057600080fd5b50600436106100ea5760003560e01c8063952233631161008c578063b162061611610066578063b1620616146101cd578063b54cb048146101f2578063d5086c0d14610205578063f2fde38b1461020d57600080fd5b8063952233631461018257806398de396a14610195578063a85c38ef146101aa57600080fd5b80637b23de81116100c85780637b23de811461011e5780637bea0d1c14610149578063843f61e21461015e5780638da5cb5b1461017157600080fd5b80632453ffa8146100ef578063382d39bb1461010b578063715018a614610114575b600080fd5b6100f860065481565b6040519081526020015b60405180910390f35b6100f860045481565b61011c610220565b005b600154610131906001600160a01b031681565b6040516001600160a01b039091168152602001610102565b610151610234565b604051610102919061133f565b61011c61016c3660046113df565b610415565b6000546001600160a01b0316610131565b61011c610190366004611401565b610880565b61019d610b94565b604051610102919061141a565b6101bd6101b8366004611401565b610d1b565b604051610102949392919061147c565b6101e06101db366004611401565b610e2b565b604051610102969594939291906114be565b61011c61020036600461153c565b610ef8565b61011c611023565b61011c61021b366004611611565b6110ad565b610228611126565b6102326000611180565b565b606060065467ffffffffffffffff81111561025157610251611526565b60405190808252806020026020018201604052801561028a57816020015b6102776111e5565b81526020019060019003908161026f5790505b50905060005b6006548110156104115760008181526005602081815260409283902083516080808201865282546001600160a01b039081168352865160c0810188526001850180548252600286015483168288015260038601549092169781019790975260048401546060880152948301549086015260068201805491959294938601939160a08401919061031e9061162c565b80601f016020809104026020016040519081016040528092919081815260200182805461034a9061162c565b80156103975780601f1061036c57610100808354040283529160200191610397565b820191906000526020600020905b81548152906001019060200180831161037a57829003601f168201915b505050919092525050508152600782015460209091019060ff1660018111156103c2576103c2611307565b60018111156103d3576103d3611307565b81526020016008820154815250508282815181106103f3576103f3611666565b6020026020010181905250808061040990611692565b915050610290565b5090565b6000828152600360208181526040808420815160c0810183528154815260018201546001600160a01b03908116948201949094526002820154909316918301919091529182015460608201526004820154608082015260058201805491929160a0840191906104839061162c565b80601f01602080910402602001604051908101604052809291908181526020018280546104af9061162c565b80156104fc5780601f106104d1576101008083540402835291602001916104fc565b820191906000526020600020905b8154815290600101906020018083116104df57829003601f168201915b50505050508152505090508060600151821461055f5760405162461bcd60e51b815260206004820152601860248201527f496e636f7272656374207061796d656e7420616d6f756e74000000000000000060448201526064015b60405180910390fd5b60408181015190516323b872dd60e01b8152336004820152306024820152604481018490526000906001600160a01b038316906323b872dd906064016020604051808303816000875af11580156105ba573d6000803e3d6000fd5b505050506040513d601f19601f820116820180604052508101906105de91906116ab565b90508061063d5760405162461bcd60e51b815260206004820152602760248201527f74686520627579657220636f756c646e277420706179207468652073756273636044820152663934b83a34b7b760c91b6064820152608401610556565b60065460009061064e9060016111d0565b604080516080808201835233825260008a815260036020818152858320865160c0810188528154815260018201546001600160a01b0390811682850152600283015416978101979097529182015460608701526004820154938601939093526005810180549697509195939492850193909160a08401916106ce9061162c565b80601f01602080910402602001604051908101604052809291908181526020018280546106fa9061162c565b80156107475780601f1061071c57610100808354040283529160200191610747565b820191906000526020600020905b81548152906001019060200180831161072a57829003601f168201915b505050919092525050508152602001600081526020018390526006549091506107719060016111d0565b6006818155600091825260056020818152604093849020855181546001600160a01b039182166001600160a01b03199182161783558388015180516001850190815594810151600285018054918516918416919091179055968701516003840180549190931691161790556060850151600482015560808501519281019290925560a0840151859492938401906108089082611723565b505050604082015160078201805460ff19166001838181111561082d5761082d611307565b021790555060609190910151600890910155604080518381523360208201527f5222ba5f86a58ad15e7771bd95a809f162ae1762ea7cd66e28a58217341334cc910160405180910390a150505050505050565b600081815260056020526040812090600782015460ff1660018111156108a8576108a8611307565b146108f55760405162461bcd60e51b815260206004820152601760248201527f4f7264657220697320616c7265616479206576616465640000000000000000006044820152606401610556565b6002546000906109069060016111d0565b60038301546004808501546040516370a0823160e01b815230928101929092529293506001600160a01b03909116919082906370a0823190602401602060405180830381865afa15801561095e573d6000803e3d6000fd5b505050506040513d601f19601f8201168201806040525081019061098291906117e3565b10156109c75760405162461bcd60e51b8152602060048201526014602482015273496e73756666696369656e742062616c616e636560601b6044820152606401610556565b600283015460048085015460405163a9059cbb60e01b81526001600160a01b0393841692810192909252602482015260009183169063a9059cbb906044016020604051808303816000875af1158015610a24573d6000803e3d6000fd5b505050506040513d601f19601f82011682018060405250810190610a4891906116ab565b905080610aad5760405162461bcd60e51b815260206004820152602d60248201527f74686520636f6e747261637420636f756c646e2774207061792074686520636f60448201526c373a32b73a1031b932b0ba37b960991b6064820152608401610556565b60015484546005860154604051630ab714fb60e11b81526001600160a01b03928316600482015260248101879052604481019190915291169063156e29f690606401600060405180830381600087803b158015610b0957600080fd5b505af1158015610b1d573d6000803e3d6000fd5b5050600254610b309250905060016111d0565b60025560078401805460ff191660011790558354604080518781526001600160a01b03909216602083015281018490527fb8a362e1c3231bc76ac0845f6bd0c60e1b9ab26e0e0a0f49058de1fb1423dcbe9060600160405180910390a15050505050565b606060045467ffffffffffffffff811115610bb157610bb1611526565b604051908082528060200260200182016040528015610bea57816020015b610bd761121c565b815260200190600190039081610bcf5790505b50905060005b60045481101561041157600081815260036020818152604092839020835160c0810185528154815260018201546001600160a01b03908116938201939093526002820154909216938201939093529082015460608201526004820154608082015260058201805491929160a084019190610c699061162c565b80601f0160208091040260200160405190810160405280929190818152602001828054610c959061162c565b8015610ce25780601f10610cb757610100808354040283529160200191610ce2565b820191906000526020600020905b815481529060010190602001808311610cc557829003601f168201915b505050505081525050828281518110610cfd57610cfd611666565b60200260200101819052508080610d1390611692565b915050610bf0565b6005602081815260009283526040928390208054845160c081018652600183018054825260028401546001600160a01b0390811695830195909552600384015485169682019690965260048301546060820152938201546080850152600682018054939091169491939260a084019190610d949061162c565b80601f0160208091040260200160405190810160405280929190818152602001828054610dc09061162c565b8015610e0d5780601f10610de257610100808354040283529160200191610e0d565b820191906000526020600020905b815481529060010190602001808311610df057829003601f168201915b505050919092525050506007820154600890920154909160ff169084565b600360208190526000918252604090912080546001820154600283015493830154600484015460058501805494966001600160a01b039485169694169492939192610e759061162c565b80601f0160208091040260200160405190810160405280929190818152602001828054610ea19061162c565b8015610eee5780601f10610ec357610100808354040283529160200191610eee565b820191906000526020600020905b815481529060010190602001808311610ed157829003601f168201915b5050505050905086565b600454600090610f099060016111d0565b905060006040518060c00160405280838152602001336001600160a01b03168152602001876001600160a01b03168152602001868152602001858152602001848152509050610f6460016004546111d090919063ffffffff16565b600481815560009182526003602081815260409384902085518155908501516001820180546001600160a01b03199081166001600160a01b03938416179091559486015160028301805490961691161790935560608401519083015560808301519082015560a08201518291906005820190610fe09082611723565b5050604080518481523360208201527f6b67a01eb500680a90226d64ad9239c6dc9c95b64ea6a8d9a3b5b94197b4658592500160405180910390a1505050505050565b600061102d610234565b905060005b81518110156110a957600082828151811061104f5761104f611666565b602002602001015160400151600181111561106c5761106c611307565b036110975761109782828151811061108657611086611666565b602002602001015160600151610880565b806110a181611692565b915050611032565b5050565b6110b5611126565b6001600160a01b03811661111a5760405162461bcd60e51b815260206004820152602660248201527f4f776e61626c653a206e6577206f776e657220697320746865207a65726f206160448201526564647265737360d01b6064820152608401610556565b61112381611180565b50565b6000546001600160a01b031633146102325760405162461bcd60e51b815260206004820181905260248201527f4f776e61626c653a2063616c6c6572206973206e6f7420746865206f776e65726044820152606401610556565b600080546001600160a01b038381166001600160a01b0319831681178455604051919092169283917f8be0079c531659141344cd1fd0a4f28419497f9722a3daafe3b4186f6b6457e09190a35050565b60006111dc82846117fc565b90505b92915050565b604051806080016040528060006001600160a01b0316815260200161120861121c565b815260200160008152602001600081525090565b6040518060c001604052806000815260200160006001600160a01b0316815260200160006001600160a01b031681526020016000815260200160008152602001606081525090565b6000815180845260005b8181101561128a5760208185018101518683018201520161126e565b506000602082860101526020601f19601f83011685010191505092915050565b805182526000602082015160018060a01b0380821660208601528060408501511660408601525050606082015160608401526080820151608084015260a082015160c060a08501526112ff60c0850182611264565b949350505050565b634e487b7160e01b600052602160045260246000fd5b6002811061133b57634e487b7160e01b600052602160045260246000fd5b9052565b60006020808301818452808551808352604092508286019150828160051b87010184880160005b838110156113d157888303603f19018552815180516001600160a01b031684528781015160808986018190529061139f828701826112aa565b915050878201516113b28987018261131d565b5060609182015194909101939093529386019390860190600101611366565b509098975050505050505050565b600080604083850312156113f257600080fd5b50508035926020909101359150565b60006020828403121561141357600080fd5b5035919050565b6000602080830181845280855180835260408601915060408160051b870101925083870160005b8281101561146f57603f1988860301845261145d8583516112aa565b94509285019290850190600101611441565b5092979650505050505050565b6001600160a01b03851681526080602082018190526000906114a0908301866112aa565b90506114af604083018561131d565b82606083015295945050505050565b8681526001600160a01b03868116602083015285166040820152606081018490526080810183905260c060a082018190526000906114fe90830184611264565b98975050505050505050565b80356001600160a01b038116811461152157600080fd5b919050565b634e487b7160e01b600052604160045260246000fd5b6000806000806080858703121561155257600080fd5b61155b8561150a565b93506020850135925060408501359150606085013567ffffffffffffffff8082111561158657600080fd5b818701915087601f83011261159a57600080fd5b8135818111156115ac576115ac611526565b604051601f8201601f19908116603f011681019083821181831017156115d4576115d4611526565b816040528281528a60208487010111156115ed57600080fd5b82602086016020830137600060208483010152809550505050505092959194509250565b60006020828403121561162357600080fd5b6111dc8261150a565b600181811c9082168061164057607f821691505b60208210810361166057634e487b7160e01b600052602260045260246000fd5b50919050565b634e487b7160e01b600052603260045260246000fd5b634e487b7160e01b600052601160045260246000fd5b6000600182016116a4576116a461167c565b5060010190565b6000602082840312156116bd57600080fd5b815180151581146116cd57600080fd5b9392505050565b601f82111561171e57600081815260208120601f850160051c810160208610156116fb5750805b601f850160051c820191505b8181101561171a57828155600101611707565b5050505b505050565b815167ffffffffffffffff81111561173d5761173d611526565b6117518161174b845461162c565b846116d4565b602080601f831160018114611786576000841561176e5750858301515b600019600386901b1c1916600185901b17855561171a565b600085815260208120601f198616915b828110156117b557888601518255948401946001909101908401611796565b50858210156117d35787850151600019600388901b60f8161c191681555b5050505050600190811b01905550565b6000602082840312156117f557600080fd5b5051919050565b808201808211156111df576111df61167c56fea2646970667358221220d0d9de01f710567819933c414a2a74a56fddc631137f7c4282aff8765459014d64736f6c63430008110033",
  "linkReferences": {},
  "deployedLinkReferences": {}
}