{
  "_format": "hh-sol-artifact-1",
  "contractName": "BotblockMarket",
  "sourceName": "contracts/BotblockMarket.sol",
  "abi": [
    {
      "inputs": [
        {
          "internalType": "address",
          "name": "_nftContract",
          "type": "address"
        }
      ],
      "stateMutability": "nonpayable",
      "type": "constructor"
    },
    {
      "anonymous": false,
      "inputs": [
        {
          "indexed": false,
          "internalType": "uint256",
          "name": "orderId",
          "type": "uint256"
        },
        {
          "indexed": false,
          "internalType": "address",
          "name": "buyer",
          "type": "address"
        },
        {
          "indexed": false,
          "internalType": "uint256",
          "name": "tokenId",
          "type": "uint256"
        }
      ],
      "name": "OrderEvaded",
      "type": "event"
    },
    {
      "anonymous": false,
      "inputs": [
        {
          "indexed": false,
          "internalType": "uint256",
          "name": "orderId",
          "type": "uint256"
        },
        {
          "indexed": false,
          "internalType": "address",
          "name": "buyer",
          "type": "address"
        }
      ],
      "name": "OrderPlaced",
      "type": "event"
    },
    {
      "anonymous": false,
      "inputs": [
        {
          "indexed": true,
          "internalType": "address",
          "name": "previousOwner",
          "type": "address"
        },
        {
          "indexed": true,
          "internalType": "address",
          "name": "newOwner",
          "type": "address"
        }
      ],
      "name": "OwnershipTransferred",
      "type": "event"
    },
    {
      "anonymous": false,
      "inputs": [
        {
          "indexed": false,
          "internalType": "uint256",
          "name": "planID",
          "type": "uint256"
        },
        {
          "indexed": false,
          "internalType": "address",
          "name": "contentCreator",
          "type": "address"
        }
      ],
      "name": "PlanCreated",
      "type": "event"
    },
    {
      "inputs": [
        {
          "internalType": "address",
          "name": "paymentTokenAddress",
          "type": "address"
        },
        {
          "internalType": "uint256",
          "name": "price",
          "type": "uint256"
        },
        {
          "internalType": "uint256",
          "name": "expirationBlock",
          "type": "uint256"
        },
        {
          "internalType": "string",
          "name": "uri",
          "type": "string"
        }
      ],
      "name": "createPlan",
      "outputs": [],
      "stateMutability": "nonpayable",
      "type": "function"
    },
    {
      "inputs": [
        {
          "internalType": "uint256",
          "name": "orderId",
          "type": "uint256"
        }
      ],
      "name": "evadeOrder",
      "outputs": [],
      "stateMutability": "nonpayable",
      "type": "function"
    },
    {
      "inputs": [],
      "name": "getAllOrders",
      "outputs": [
        {
          "components": [
            {
              "internalType": "address",
              "name": "buyer",
              "type": "address"
            },
            {
              "components": [
                {
                  "internalType": "uint256",
                  "name": "planID",
                  "type": "uint256"
                },
                {
                  "internalType": "address",
                  "name": "contentCreator",
                  "type": "address"
                },
                {
                  "internalType": "address",
                  "name": "paymentTokenAddress",
                  "type": "address"
                },
                {
                  "internalType": "uint256",
                  "name": "price",
                  "type": "uint256"
                },
                {
                  "internalType": "uint256",
                  "name": "expirationBlock",
                  "type": "uint256"
                },
                {
                  "internalType": "string",
                  "name": "uri",
                  "type": "string"
                }
              ],
              "internalType": "struct BotblockMarket.Plan",
              "name": "plan",
              "type": "tuple"
            },
            {
              "internalType": "enum BotblockMarket.OrderStatus",
              "name": "status",
              "type": "uint8"
            },
            {
              "internalType": "uint256",
              "name": "orderId",
              "type": "uint256"
            }
          ],
          "internalType": "struct BotblockMarket.Order[]",
          "name": "allOrders",
          "type": "tuple[]"
        }
      ],
      "stateMutability": "view",
      "type": "function"
    },
    {
      "inputs": [],
      "name": "getAllPlans",
      "outputs": [
        {
          "components": [
            {
              "internalType": "uint256",
              "name": "planID",
              "type": "uint256"
            },
            {
              "internalType": "address",
              "name": "contentCreator",
              "type": "address"
            },
            {
              "internalType": "address",
              "name": "paymentTokenAddress",
              "type": "address"
            },
            {
              "internalType": "uint256",
              "name": "price",
              "type": "uint256"
            },
            {
              "internalType": "uint256",
              "name": "expirationBlock",
              "type": "uint256"
            },
            {
              "internalType": "string",
              "name": "uri",
              "type": "string"
            }
          ],
          "internalType": "struct BotblockMarket.Plan[]",
          "name": "allPlans",
          "type": "tuple[]"
        }
      ],
      "stateMutability": "view",
      "type": "function"
    },
    {
      "inputs": [],
      "name": "neverminedNft721",
      "outputs": [
        {
          "internalType": "contract INvmNFT721",
          "name": "",
          "type": "address"
        }
      ],
      "stateMutability": "view",
      "type": "function"
    },
    {
      "inputs": [],
      "name": "orderCount",
      "outputs": [
        {
          "internalType": "uint256",
          "name": "",
          "type": "uint256"
        }
      ],
      "stateMutability": "view",
      "type": "function"
    },
    {
      "inputs": [
        {
          "internalType": "uint256",
          "name": "",
          "type": "uint256"
        }
      ],
      "name": "orders",
      "outputs": [
        {
          "internalType": "address",
          "name": "buyer",
          "type": "address"
        },
        {
          "components": [
            {
              "internalType": "uint256",
              "name": "planID",
              "type": "uint256"
            },
            {
              "internalType": "address",
              "name": "contentCreator",
              "type": "address"
            },
            {
              "internalType": "address",
              "name": "paymentTokenAddress",
              "type": "address"
            },
            {
              "internalType": "uint256",
              "name": "price",
              "type": "uint256"
            },
            {
              "internalType": "uint256",
              "name": "expirationBlock",
              "type": "uint256"
            },
            {
              "internalType": "string",
              "name": "uri",
              "type": "string"
            }
          ],
          "internalType": "struct BotblockMarket.Plan",
          "name": "plan",
          "type": "tuple"
        },
        {
          "internalType": "enum BotblockMarket.OrderStatus",
          "name": "status",
          "type": "uint8"
        },
        {
          "internalType": "uint256",
          "name": "orderId",
          "type": "uint256"
        }
      ],
      "stateMutability": "view",
      "type": "function"
    },
    {
      "inputs": [],
      "name": "owner",
      "outputs": [
        {
          "internalType": "address",
          "name": "",
          "type": "address"
        }
      ],
      "stateMutability": "view",
      "type": "function"
    },
    {
      "inputs": [
        {
          "internalType": "uint256",
          "name": "planId",
          "type": "uint256"
        },
        {
          "internalType": "uint256",
          "name": "amount",
          "type": "uint256"
        }
      ],
      "name": "placeOrder",
      "outputs": [],
      "stateMutability": "payable",
      "type": "function"
    },
    {
      "inputs": [],
      "name": "planCount",
      "outputs": [
        {
          "internalType": "uint256",
          "name": "",
          "type": "uint256"
        }
      ],
      "stateMutability": "view",
      "type": "function"
    },
    {
      "inputs": [
        {
          "internalType": "uint256",
          "name": "",
          "type": "uint256"
        }
      ],
      "name": "plans",
      "outputs": [
        {
          "internalType": "uint256",
          "name": "planID",
          "type": "uint256"
        },
        {
          "internalType": "address",
          "name": "contentCreator",
          "type": "address"
        },
        {
          "internalType": "address",
          "name": "paymentTokenAddress",
          "type": "address"
        },
        {
          "internalType": "uint256",
          "name": "price",
          "type": "uint256"
        },
        {
          "internalType": "uint256",
          "name": "expirationBlock",
          "type": "uint256"
        },
        {
          "internalType": "string",
          "name": "uri",
          "type": "string"
        }
      ],
      "stateMutability": "view",
      "type": "function"
    },
    {
      "inputs": [],
      "name": "renounceOwnership",
      "outputs": [],
      "stateMutability": "nonpayable",
      "type": "function"
    },
    {
      "inputs": [
        {
          "internalType": "address",
          "name": "newOwner",
          "type": "address"
        }
      ],
      "name": "transferOwnership",
      "outputs": [],
      "stateMutability": "nonpayable",
      "type": "function"
    }
  ],
  "bytecode": "0x608060405234801561001057600080fd5b5060405161198738038061198783398101604081905261002f916100ad565b6100383361005d565b600180546001600160a01b0319166001600160a01b03929092169190911790556100dd565b600080546001600160a01b038381166001600160a01b0319831681178455604051919092169283917f8be0079c531659141344cd1fd0a4f28419497f9722a3daafe3b4186f6b6457e09190a35050565b6000602082840312156100bf57600080fd5b81516001600160a01b03811681146100d657600080fd5b9392505050565b61189b806100ec6000396000f3fe6080604052600436106100c25760003560e01c80638da5cb5b1161007f578063a85c38ef11610059578063a85c38ef146101ea578063b16206161461021a578063b54cb0481461024c578063f2fde38b1461026c57600080fd5b80638da5cb5b1461018a57806395223363146101a857806398de396a146101c857600080fd5b80632453ffa8146100c7578063382d39bb146100f0578063715018a6146101065780637b23de811461011d5780637bea0d1c14610155578063843f61e214610177575b600080fd5b3480156100d357600080fd5b506100dd60065481565b6040519081526020015b60405180910390f35b3480156100fc57600080fd5b506100dd60045481565b34801561011257600080fd5b5061011b61028c565b005b34801561012957600080fd5b5060015461013d906001600160a01b031681565b6040516001600160a01b0390911681526020016100e7565b34801561016157600080fd5b5061016a6102a0565b6040516100e79190611395565b61011b610185366004611435565b610481565b34801561019657600080fd5b506000546001600160a01b031661013d565b3480156101b457600080fd5b5061011b6101c3366004611457565b6108ec565b3480156101d457600080fd5b506101dd610c74565b6040516100e79190611470565b3480156101f657600080fd5b5061020a610205366004611457565b610dfb565b6040516100e794939291906114d2565b34801561022657600080fd5b5061023a610235366004611457565b610f0b565b6040516100e796959493929190611514565b34801561025857600080fd5b5061011b610267366004611592565b610fd8565b34801561027857600080fd5b5061011b610287366004611667565b611103565b61029461117c565b61029e60006111d6565b565b606060065467ffffffffffffffff8111156102bd576102bd61157c565b6040519080825280602002602001820160405280156102f657816020015b6102e361123b565b8152602001906001900390816102db5790505b50905060005b60045481101561047d5760008181526005602081815260409283902083516080808201865282546001600160a01b039081168352865160c0810188526001850180548252600286015483168288015260038601549092169781019790975260048401546060880152948301549086015260068201805491959294938601939160a08401919061038a90611682565b80601f01602080910402602001604051908101604052809291908181526020018280546103b690611682565b80156104035780601f106103d857610100808354040283529160200191610403565b820191906000526020600020905b8154815290600101906020018083116103e657829003601f168201915b505050919092525050508152600782015460209091019060ff16600181111561042e5761042e61135d565b600181111561043f5761043f61135d565b815260200160088201548152505082828151811061045f5761045f6116bc565b60200260200101819052508080610475906116e8565b9150506102fc565b5090565b6000828152600360208181526040808420815160c0810183528154815260018201546001600160a01b03908116948201949094526002820154909316918301919091529182015460608201526004820154608082015260058201805491929160a0840191906104ef90611682565b80601f016020809104026020016040519081016040528092919081815260200182805461051b90611682565b80156105685780601f1061053d57610100808354040283529160200191610568565b820191906000526020600020905b81548152906001019060200180831161054b57829003601f168201915b5050505050815250509050806060015182146105cb5760405162461bcd60e51b815260206004820152601860248201527f496e636f7272656374207061796d656e7420616d6f756e74000000000000000060448201526064015b60405180910390fd5b60408181015190516323b872dd60e01b8152336004820152306024820152604481018490526000906001600160a01b038316906323b872dd906064016020604051808303816000875af1158015610626573d6000803e3d6000fd5b505050506040513d601f19601f8201168201806040525081019061064a9190611701565b9050806106a95760405162461bcd60e51b815260206004820152602760248201527f74686520627579657220636f756c646e277420706179207468652073756273636044820152663934b83a34b7b760c91b60648201526084016105c2565b6006546000906106ba906001611226565b604080516080808201835233825260008a815260036020818152858320865160c0810188528154815260018201546001600160a01b0390811682850152600283015416978101979097529182015460608701526004820154938601939093526005810180549697509195939492850193909160a084019161073a90611682565b80601f016020809104026020016040519081016040528092919081815260200182805461076690611682565b80156107b35780601f10610788576101008083540402835291602001916107b3565b820191906000526020600020905b81548152906001019060200180831161079657829003601f168201915b505050919092525050508152602001600081526020018390526006549091506107dd906001611226565b6006818155600091825260056020818152604093849020855181546001600160a01b039182166001600160a01b03199182161783558388015180516001850190815594810151600285018054918516918416919091179055968701516003840180549190931691161790556060850151600482015560808501519281019290925560a0840151859492938401906108749082611779565b505050604082015160078201805460ff1916600183818111156108995761089961135d565b021790555060609190910151600890910155604080518381523360208201527f5222ba5f86a58ad15e7771bd95a809f162ae1762ea7cd66e28a58217341334cc910160405180910390a150505050505050565b6000546001600160a01b031633146109605760405162461bcd60e51b815260206004820152603160248201527f4f6e6c7920746865206d61726b6574706c616365206f776e65722063616e206360448201527030b636103a3434b990333ab731ba34b7b760791b60648201526084016105c2565b600081815260056020526040812090600782015460ff1660018111156109885761098861135d565b146109d55760405162461bcd60e51b815260206004820152601760248201527f4f7264657220697320616c72656164792065766164656400000000000000000060448201526064016105c2565b6002546000906109e6906001611226565b60038301546004808501546040516370a0823160e01b815230928101929092529293506001600160a01b03909116919082906370a0823190602401602060405180830381865afa158015610a3e573d6000803e3d6000fd5b505050506040513d601f19601f82011682018060405250810190610a629190611839565b1015610aa75760405162461bcd60e51b8152602060048201526014602482015273496e73756666696369656e742062616c616e636560601b60448201526064016105c2565b600283015460048085015460405163a9059cbb60e01b81526001600160a01b0393841692810192909252602482015260009183169063a9059cbb906044016020604051808303816000875af1158015610b04573d6000803e3d6000fd5b505050506040513d601f19601f82011682018060405250810190610b289190611701565b905080610b8d5760405162461bcd60e51b815260206004820152602d60248201527f74686520636f6e747261637420636f756c646e2774207061792074686520636f60448201526c373a32b73a1031b932b0ba37b960991b60648201526084016105c2565b60015484546005860154604051630ab714fb60e11b81526001600160a01b03928316600482015260248101879052604481019190915291169063156e29f690606401600060405180830381600087803b158015610be957600080fd5b505af1158015610bfd573d6000803e3d6000fd5b5050600254610c10925090506001611226565b60025560078401805460ff191660011790558354604080518781526001600160a01b03909216602083015281018490527fb8a362e1c3231bc76ac0845f6bd0c60e1b9ab26e0e0a0f49058de1fb1423dcbe9060600160405180910390a15050505050565b606060045467ffffffffffffffff811115610c9157610c9161157c565b604051908082528060200260200182016040528015610cca57816020015b610cb7611272565b815260200190600190039081610caf5790505b50905060005b60045481101561047d57600081815260036020818152604092839020835160c0810185528154815260018201546001600160a01b03908116938201939093526002820154909216938201939093529082015460608201526004820154608082015260058201805491929160a084019190610d4990611682565b80601f0160208091040260200160405190810160405280929190818152602001828054610d7590611682565b8015610dc25780601f10610d9757610100808354040283529160200191610dc2565b820191906000526020600020905b815481529060010190602001808311610da557829003601f168201915b505050505081525050828281518110610ddd57610ddd6116bc565b60200260200101819052508080610df3906116e8565b915050610cd0565b6005602081815260009283526040928390208054845160c081018652600183018054825260028401546001600160a01b0390811695830195909552600384015485169682019690965260048301546060820152938201546080850152600682018054939091169491939260a084019190610e7490611682565b80601f0160208091040260200160405190810160405280929190818152602001828054610ea090611682565b8015610eed5780601f10610ec257610100808354040283529160200191610eed565b820191906000526020600020905b815481529060010190602001808311610ed057829003601f168201915b505050919092525050506007820154600890920154909160ff169084565b600360208190526000918252604090912080546001820154600283015493830154600484015460058501805494966001600160a01b039485169694169492939192610f5590611682565b80601f0160208091040260200160405190810160405280929190818152602001828054610f8190611682565b8015610fce5780601f10610fa357610100808354040283529160200191610fce565b820191906000526020600020905b815481529060010190602001808311610fb157829003601f168201915b5050505050905086565b600454600090610fe9906001611226565b905060006040518060c00160405280838152602001336001600160a01b03168152602001876001600160a01b03168152602001868152602001858152602001848152509050611044600160045461122690919063ffffffff16565b600481815560009182526003602081815260409384902085518155908501516001820180546001600160a01b03199081166001600160a01b03938416179091559486015160028301805490961691161790935560608401519083015560808301519082015560a082015182919060058201906110c09082611779565b5050604080518481523360208201527f6b67a01eb500680a90226d64ad9239c6dc9c95b64ea6a8d9a3b5b94197b4658592500160405180910390a1505050505050565b61110b61117c565b6001600160a01b0381166111705760405162461bcd60e51b815260206004820152602660248201527f4f776e61626c653a206e6577206f776e657220697320746865207a65726f206160448201526564647265737360d01b60648201526084016105c2565b611179816111d6565b50565b6000546001600160a01b0316331461029e5760405162461bcd60e51b815260206004820181905260248201527f4f776e61626c653a2063616c6c6572206973206e6f7420746865206f776e657260448201526064016105c2565b600080546001600160a01b038381166001600160a01b0319831681178455604051919092169283917f8be0079c531659141344cd1fd0a4f28419497f9722a3daafe3b4186f6b6457e09190a35050565b60006112328284611852565b90505b92915050565b604051806080016040528060006001600160a01b0316815260200161125e611272565b815260200160008152602001600081525090565b6040518060c001604052806000815260200160006001600160a01b0316815260200160006001600160a01b031681526020016000815260200160008152602001606081525090565b6000815180845260005b818110156112e0576020818501810151868301820152016112c4565b506000602082860101526020601f19601f83011685010191505092915050565b805182526000602082015160018060a01b0380821660208601528060408501511660408601525050606082015160608401526080820151608084015260a082015160c060a085015261135560c08501826112ba565b949350505050565b634e487b7160e01b600052602160045260246000fd5b6002811061139157634e487b7160e01b600052602160045260246000fd5b9052565b60006020808301818452808551808352604092508286019150828160051b87010184880160005b8381101561142757888303603f19018552815180516001600160a01b03168452878101516080898601819052906113f582870182611300565b9150508782015161140889870182611373565b50606091820151949091019390935293860193908601906001016113bc565b509098975050505050505050565b6000806040838503121561144857600080fd5b50508035926020909101359150565b60006020828403121561146957600080fd5b5035919050565b6000602080830181845280855180835260408601915060408160051b870101925083870160005b828110156114c557603f198886030184526114b3858351611300565b94509285019290850190600101611497565b5092979650505050505050565b6001600160a01b03851681526080602082018190526000906114f690830186611300565b90506115056040830185611373565b82606083015295945050505050565b8681526001600160a01b03868116602083015285166040820152606081018490526080810183905260c060a08201819052600090611554908301846112ba565b98975050505050505050565b80356001600160a01b038116811461157757600080fd5b919050565b634e487b7160e01b600052604160045260246000fd5b600080600080608085870312156115a857600080fd5b6115b185611560565b93506020850135925060408501359150606085013567ffffffffffffffff808211156115dc57600080fd5b818701915087601f8301126115f057600080fd5b8135818111156116025761160261157c565b604051601f8201601f19908116603f0116810190838211818310171561162a5761162a61157c565b816040528281528a602084870101111561164357600080fd5b82602086016020830137600060208483010152809550505050505092959194509250565b60006020828403121561167957600080fd5b61123282611560565b600181811c9082168061169657607f821691505b6020821081036116b657634e487b7160e01b600052602260045260246000fd5b50919050565b634e487b7160e01b600052603260045260246000fd5b634e487b7160e01b600052601160045260246000fd5b6000600182016116fa576116fa6116d2565b5060010190565b60006020828403121561171357600080fd5b8151801515811461172357600080fd5b9392505050565b601f82111561177457600081815260208120601f850160051c810160208610156117515750805b601f850160051c820191505b818110156117705782815560010161175d565b5050505b505050565b815167ffffffffffffffff8111156117935761179361157c565b6117a7816117a18454611682565b8461172a565b602080601f8311600181146117dc57600084156117c45750858301515b600019600386901b1c1916600185901b178555611770565b600085815260208120601f198616915b8281101561180b578886015182559484019460019091019084016117ec565b50858210156118295787850151600019600388901b60f8161c191681555b5050505050600190811b01905550565b60006020828403121561184b57600080fd5b5051919050565b80820180821115611235576112356116d256fea26469706673582212204a74a2112a04b45ef6284bf64641e39f9ae74e22ca1637642fbee54dc17e659b64736f6c63430008110033",
  "linkReferences": {},
  "deployedLinkReferences": {}
}